:100000000C94A5000C94C2000C94C2000C94C20085
:100010000C94C2000C94C2000C94C2000C94C20058
:100020000C94C2000C94C2000C94C2000C94C50243
:100030000C94C2000C94C2000C94C2000C94C20038
:100040000C94C2000C94C2000C94C2000C94C20028
:100050000C94C200084AD73B3BCE016E84BCBFFD66
:10006000C12F3D6C74319ABD56833DDA3D00C77F88
:1000700011BED9E4BB4C3E916BAAAABE0000008021
:100080003F072C7AA5BA6CC590DA3B9365FC8BBC14
:1000900053F810FD3C5692834DBD879D3AB63DCB3B
:1000A000C9BF5BBE73DA0FC93F05A84CCDB2D44EB1
:1000B000B93836A9020C50B9918688083CA6AAAA7C
:1000C0002ABE000000803F07634236B79BD8A71ABC
:1000D00039685618AEBAAB558C1D3CB7CC5763BDCA
:1000E0006DEDFD753EF6177231BF000000803F08D0
:1000F000000000BE922449123EABAAAA2ABECDCC73
:10010000CC4C3E00000080BEABAAAAAA3E00000074
:1001100000BF000000803F0000000000084178D3CD
:10012000BB4387D1133D190E3CC3BD4282AD2B3E6C
:1001300068EC8276BED98FE1A93E4C80EFFFBE010C
:10014000C4FF7F3F00000000000011241FBECFE568
:10015000D4E0DEBFCDBF12E0A0E6B0E0EAEBF0E213
:1001600002C005900D92AA3BB107D9F722E0AAEB95
:10017000B2E001C01D92A23FB207E1F70E942B0737
:100180000C945B100C94000010BC8CE089B980B515
:10019000866080BD8AB188698AB908955D9BFECF6B
:1001A0008CB908955F9BFECF8CB10895CF93DF93F8
:1001B000DC014FEF8FEF0FC09C91242F292730E0F7
:1001C000F901E654FE4F40814827F901E654FF4FFC
:1001D0008081BE011196EB012197672B69F790E0B2
:1001E000982F8827842BDF91CF910895EF92FF926B
:1001F0000F931F93CF93DF937C018B010E94D60056
:10020000F701E00FF11F8083F8013196EE0DFF1D1D
:100210009083C0E0D0E00DC0F701EC0FFD1F80819E
:100220000E94CE008FE396E00197F1F700C0000036
:100230002196C80101968C179D0774F7DF91CF9125
:100240001F910F91FF90EF900895AEEDB2E09C9159
:10025000E8ECF2E0908311969C9190689183828300
:1002600063E070E0CF010E94F6000895EEEDF2E049
:10027000828190E0982F88272381822B9C016481C2
:1002800070E0762F66274581642BAB01FB01319727
:10029000ED37F10528F083E00E94250180E0089504
:1002A000860F971F0197C29728F082E00E942501D0
:1002B00080E00895E8ECF2E081E080838091DF0245
:1002C0008183660F628380E090E063E070E015C098
:1002D000F901EE0FFF1FE258FF4FA081B181FB0132
:1002E000E853FD4FB083FB013196E853FD4F6E5F3D
:1002F0007F4FA0832F5F3F4F01968417950740F3F0
:1003000088EC92E00E94F60081E00895EF92FF925F
:100310000F931F93CF93DF93EEEDF2E0228130E055
:10032000322F22278381282BC481D0E0DC2FCC27D9
:100330008581C82B8E01CE010197803D974028F022
:1003400083E00E94250180E06EC0C9018C0F9D1FD3
:100350000197883C910528F082E00E94250180E009
:1003600062C0E8ECF2E081E080838091DF0281836B
:10037000CE019695879596958795969587957E015A
:1003800047E0E422FF24E114F10411F041E001C050
:1003900040E0840F8093CA02D901B695A795B6951F
:1003A000A795B695A79527703327E0E0F0E040E0E9
:1003B00050E063E070E02BC0ED01C659DF4F88814B
:1003C00090E0022E02C0959587950A94E2F781701D
:1003D0009927042E02C0880F991F0A94E2F7EB01B7
:1003E000C853DD4F9881892B88834F5F5F4F2F5F04
:1003F0003F4F4830510524F06F5F7F4F40E050E0A1
:100400002830310518F0119620E030E03196E017E1
:10041000F10790F2EF2811F06F5F7F4F88EC92E0C8
:100420000E94F60081E0DF91CF911F910F91FF9024
:10043000EF900895EEEDF2E05281852F90E0982F35
:1004400088274381842B8233910528F082E00E9423
:10045000250180E00895AEEDB2E014967C911497EA
:10046000272F30E0322F222715966C911597262BD7
:10047000880F991FFC01E258FF4F31832083E8EC7D
:10048000F2E081E0808311968C91818352834383D3
:100490007483658366E070E0CF010E94F60081E01E
:1004A0000895EEEDF2E04281842F90E0982F8827A6
:1004B0003381832B883C910528F082E00E9425013E
:1004C00080E00895BC017695679576956795769559
:1004D0006795877099272091E2022F3FA1F45091F0
:1004E000E302511110C0E1E0F0E0DF0102C0AA0F09
:1004F000BB1F8A95E2F7CD01FB01E659FF4F9081C2
:10050000892B808316C0211114C05091E302511130
:1005100010C0E1E0F0E0DF0102C0AA0FBB1F8A9526
:10052000E2F7CD01FB01E659FF4F809590818923C9
:100530008083E8ECF2E081E08083AEEDB2E01196DA
:100540008C911197818342833383248315968C91F8
:10055000858366E070E0CF010E94F60081E0089597
:100560002BE0AC01249FC001259F900D1124885AD7
:100570009D4F9BBD8ABD269FC001279F900D1124D2
:10058000885A9D4F99BD88BD08951F920F920FB64E
:100590000F9211242F933F934F935F936F937F9309
:1005A0008F939F93AF93BF93CF93DF93EF93FF937B
:1005B000C091BA02D091BB020E94D200C252DD4F5C
:1005C00088838091BA029091BB0201969093BB02FE
:1005D0008093BA02089724F18091DE028130E1F421
:1005E0008091DF02833061F018F4813031F011C066
:1005F000853049F0863051F00CC00E9486010CC055
:100600000E94360109C00E94510206C00E941A02CF
:1006100003C081E00E9425011092BB021092BA0231
:10062000FF91EF91DF91CF91BF91AF919F918F910A
:100630007F916F915F914F913F912F910F900FBEDE
:100640000F901F9018954F925F926F927F928F92AA
:100650009F92AF92BF92CF92DF92EF92FF92CF9391
:10066000DF93EB01BC01990F880B990B0E947F0C63
:1006700025E33AEF4EE85CE30E94C20D6B017C017A
:100680000E94D00B20E030E040E451E40E94C20D13
:100690004B015C01BE01DD0F880B990B0E947F0CA2
:1006A00025E33AEF4EE85CE30E94C20D9B01AC01EA
:1006B000C701B6010E94300B2B013C010E94D00BF8
:1006C00020E030E040EF50E40E94C20D9B01AC01FD
:1006D000C501B4010E94300B6093C4027093C5023F
:1006E0008093C6029093C702C701B6010E947F0E95
:1006F00020E030E040E451E40E94C20D6B017C0137
:10070000C301B2010E947F0E20E030E040EF50E4D0
:100710000E94C20D9B01AC01C701B6010E94300BC3
:100720006093C0027093C1028093C2029093C3028F
:10073000DF91CF91FF90EF90DF90CF90BF90AF907F
:100740009F908F907F906F905F904F9008954F9201
:100750005F926F927F928F929F92AF92BF92CF9251
:10076000DF92EF92FF92CF93DF93CDB7DEB72C9756
:100770000FB6F894DEBF0FBECDBF4B015C012983DD
:100780003A834B835C8320E030E040E050E40E94F9
:100790002F0E6B017C0120E030E040E050E46981E5
:1007A0007A818B819C810E942F0E9B01AC01C70135
:1007B000B6010E94300B20E030E040E153E40E949B
:1007C0002F0B20E030E041E652E40E942F0B20E0A6
:1007D00030E044E353E40E94D50B6B017C0120E040
:1007E00030E040E050E40E942F0E9B01AC0160E03D
:1007F00070E080E89FE30E942F0B0E948D0E2B017A
:100800003C0120E030E040EF50E4C701B6010E9417
:10081000C20D20E030E040E451E40E94300B6987D3
:100820007A878B879C879B01AC0169817A818B8158
:100830009C810E94C20D6D837E838F83988720E008
:1008400030E040EF50E4C301B2010E94C20D2B0121
:100850003C019B01AC01C501B4010E94C20D9B018A
:10086000AC016D817E818F8198850E942F0B6D83F5
:100870007E838F83988729853A854B855C85C50162
:10088000B4010E94C20D4B015C01A3019201698178
:100890007A818B819C810E94C20D9B01AC01C501B4
:1008A000B4010E94300B9B01AC016D817E818F8170
:1008B00098850E94D50B4B015C0120E030E040E8B8
:1008C0005FEBC701B6010E94B50D8823D4F020E08C
:1008D00030E040E85FE3C701B6010E94CB0B181679
:1008E00084F0C701B6010E941E0B25E33AEF4EE8E3
:1008F0005CE30E94D50B0E94470C7093BF0260938B
:10090000BE0220E030E0A901C501B4010E94CB0B7A
:100910008823BCF4C501B4010E949C0B25E33AEF87
:100920004EE85CE30E94D50B20E030E044E353E462
:100930000E94300B0E94470C7093DD026093DC0232
:1009400010C0C501B4010E949C0B25E33AEF4EE8AC
:100950005CE30E94D50B0E94470C7093DD0260930C
:10096000DC022C960FB6F894DEBF0FBECDBFDF9130
:10097000CF91FF90EF90DF90CF90BF90AF909F907E
:100980008F907F906F905F904F90089520E030E0BF
:1009900021C0482F50E0022E02C0440F551F0A9478
:1009A000E2F747FF04C098B3926098BB03C098B3C6
:1009B0009D7F98BB98B3916098BB9AE19A95F1F7A7
:1009C00000C098B39E7F98BB9AE19A95F1F700C05A
:1009D0002F5F3F4F28303105E4F2089588B38460DB
:1009E00088BB8AE18A95F1F700C088B38B7F88BB0A
:1009F000089520E030E021C0482F50E0022E02C0D0
:100A0000440F551F0A94E2F747FF04C09BB392605E
:100A10009BBB03C09BB39D7F9BBB9BB391609BBB68
:100A20009AE19A95F1F700C09BB39E7F9BBB9AE138
:100A30009A95F1F700C02F5F3F4F28303105E4F25F
:100A400008958F929F92AF92BF92CF92DF92EF92D2
:100A5000FF926B017C0149015A0120E030E0A901BD
:100A60000E94B50D8823D4F020E030E0A901C50133
:100A7000B4010E94B50D88238CF08FEF0E94F90419
:100A80008FEF0E94F9048BB384608BBB8AE18A9557
:100A9000F1F700C08BB38B7F8BBB56C020E030E0FA
:100AA000A901C701B6010E94B50D8823D4F020E04A
:100AB00030E0A901C501B4010E94CB0B88238CF45E
:100AC0008FEF0E94F9048FEB0E94F9048BB38460CE
:100AD0008BBB8AE18A95F1F700C08BB38B7F8BBB10
:100AE00033C020E030E0A901C701B6010E94CB0B62
:100AF0008823D4F420E030E0A901C501B4010E94AC
:100B0000B50D88238CF08FEB0E94F9048FEF0E94C3
:100B1000F9048BB384608BBB8AE18A95F1F700C03E
:100B20008BB38B7F8BBB10C08FEB0E94F9048FEBD4
:100B30000E94F9048BB384608BBB8AE18A95F1F73C
:100B400000C08BB38B7F8BBBFF90EF90DF90CF907B
:100B5000BF90AF909F908F9008954F925F926F9249
:100B60007F928F929F92AF92BF92CF92DF92EF923D
:100B7000FF920F931F93CF93DF93CDB7DEB76E979E
:100B80000FB6F894DEBF0FBECDBF69837A838B8327
:100B90009C832D833E834F835887E986FA860B8793
:100BA0001C870F2EFAE04F2E512C612C712CF02D4A
:100BB000A30192010E9406106D877E878F87988B14
:100BC000CA01B901A30192010E940610698B7A8BB8
:100BD0008B8B9C8B14E6E12EF12C00E010E06981F8
:100BE0007A818B819C81A80197010E940610CA011D
:100BF000B901A30192010E94061069837A838B8355
:100C00009C836D817E818F819885A30192010E94D2
:100C100006106D8B7E8B8F8B988FCA01B901A30153
:100C200092010E940610698F7A8F8B8F9C8F6D8145
:100C30007E818F819885A80197010E940610CA01C4
:100C4000B901A30192010E9406106D837E838F83F8
:100C5000988769857A858B859C850E94470CAB01B6
:100C6000772324F444275527461B570B2AE030E00E
:100C7000CA01B9010E94F20F2C01CB01B9010E94F7
:100C8000F20F3C0120E030E040E251E469857A85D2
:100C90008B859C850E94C20D0E94470C9B01772387
:100CA00024F422273327261B370BC9016AE070E0A2
:100CB0000E94F20F4C01C601B5010E94470CAB0126
:100CC000772324F444275527461B570B2AE030E0AE
:100CD000CA01B9010E94F20F7C01CB01B9010E9447
:100CE000F20F8C0120E030E040E251E4C601B50192
:100CF0000E94C20D0E94470C9B01772324F42227F7
:100D00003327261B370BC9016AE070E00E94F20FFF
:100D10009E8F8D8FF301E05AFF4F80810E94C604A1
:100D2000F201E05AFF4F80818F770E94C604F401E0
:100D3000E05AFF4F80810E94C604F801E05AFF4F3D
:100D400080810E94C604F701E05AFF4F80818F77AF
:100D50000E94C6048D8D9E8D805A9F4FFC0180811C
:100D60000E94C604E981FA81E05AFF4F80810E9407
:100D7000C604E989FA89E05AFF4F80810E94C604BF
:100D8000ED85FE85E05AFF4F80810E94C604ED810B
:100D9000FE81E05AFF4F80810E94C604E98DFA8DE2
:100DA000E05AFF4F80810E94C604ED89FE89E05A17
:100DB000FF4F80810E94C6040E94EE0429853A8577
:100DC0004B855C85C601B5010E9421056E960FB664
:100DD000F894DEBF0FBECDBFDF91CF911F910F9171
:100DE000FF90EF90DF90CF90BF90AF909F908F904B
:100DF0007F906F905F904F900895CF93DF936091B5
:100E0000C4027091C5028091C6029091C7020E94EF
:100E1000470CCEE7D0E07D836C836091C002709177
:100E2000C1028091C2029091C3020E94470C7F834D
:100E30006E83DF91CF910895EEE7F0E08091DC02C0
:100E40009091DD02918380838091BE029091BF02D8
:100E5000938382830895CF93DF93CDB7DEB728972E
:100E60000FB6F894DEBF0FBECDBF0E94C4008AB398
:100E700087608ABB8BB38BBB87B3876087BB88B324
:100E800088BB81B3826381BB8FEF82BB8FB5826ADF
:100E90008FBD8EB58A618EBD88E592E09BBD8ABD0F
:100EA00099BD88BD88E99AE397BD86BD7894809105
:100EB0009200909193008230910509F44BC01CF48C
:100EC000019749F0F4CF8330910509F49EC004974F
:100ED00009F4EDC2ECCFEEE7F0E0808191819093D0
:100EE000DD028093DC02628173817093BF026093A4
:100EF000BE020E9423036091BE027091BF028091E6
:100F0000DC029091DD020E94B002A090C002B0907D
:100F1000C102C090C202D090C302E090C402F0901F
:100F2000C5020091C6021091C7022091BE02309105
:100F3000BF02032E000C440B550B6091DC02709134
:100F4000DD02072E000C880B990B0E94AD050E9454
:100F5000FD06ADCF6091820070918300072E000CDA
:100F6000880B990B0E947F0C6B017C016093C4027B
:100F70007093C5028093C6029093C702609184006B
:100F800070918500072E000C880B990B0E947F0C36
:100F90009B01AC016093C0027093C1028093C202B6
:100FA0009093C302C701B6010E94A7036091BE02DD
:100FB0007091BF028091DC029091DD020E94B0022C
:100FC000A090C002B090C102C090C202D090C302F3
:100FD000E090C402F090C5020091C6021091C702D1
:100FE0002091BE023091BF02032E000C440B550B22
:100FF0006091DC027091DD02072E000C880B990BCA
:101000000E94AD050E941C0752CFEEE7F0E0E0849D
:10101000F18462857385248535853A832983068525
:101020001785072E000C880B990B0E947F0C4B0133
:101030005C01B701FF0C880B990B0E947F0CA50186
:1010400094010E94A7036090DC027090DD02409042
:10105000BE025090BF02B801110F880B990B0E947D
:101060007F0C6B017C01E981FA81BF01FF0F880BC6
:10107000990B0E947F0CA70196010E94A703209163
:10108000DC023091DD0238872F838090BE02909081
:10109000BF02261937093C832B83C40184199509A3
:1010A0009E838D839923C4F5212C312C71C0F101CD
:1010B000E40DF51DFA83E983BF01C3010E94B0026C
:1010C00069817A81C3010E942303A090C002B0907D
:1010D000C102C090C202D090C302E090C402F0905E
:1010E000C5020091C6021091C70289819A819C01B4
:1010F000990F440B550BB301072C000C880B990B6F
:101100000E94AD05EFE3FCE93197F1F700C0000064
:10111000FFEF2F1A3F0A02C0212C312C2D813E8176
:101120002216330624F23CC0C201821993099A8325
:101130008983BC01C3010E94B00269817A81C30125
:101140000E942303A090C002B090C102C090C202CE
:10115000D090C302E090C402F090C5020091C60294
:101160001091C702E981FA819F01FF0F440B550BD3
:10117000B301072C000C880B990B0E94AD058FE37F
:101180009CE90197F1F700C000009FEF291A390A86
:101190008D819E819195819591092816390624F2B9
:1011A000EB81FC81FF23C4F5212C312C71C091010E
:1011B000260D371D3A832983B401C9010E94B0026C
:1011C000B40189819A810E942303A090C002B0904B
:1011D000C102C090C202D090C302E090C402F0905D
:1011E000C5020091C6021091C702E981FA81BF01D0
:1011F000FF0F880B990B9401092C000C440B550B25
:101200000E94AD058FE19EE40197F1F700C0000058
:101210009FEF291A390A02C0212C312CEB81FC8165
:101220002E163F0624F23CC09301221933093A835B
:101230002983B401C9010E94B002B40189819A8155
:101240000E942303A090C002B090C102C090C202CD
:10125000D090C302E090C402F090C5020091C60293
:101260001091C702E981FA81BF01FF0F880B990B2A
:101270009401092C000C440B550B0E94AD058FE125
:101280009EE40197F1F700C000009FEF291A390A88
:101290008B819C819195819591092816390624F2BC
:1012A000EFEFFDE329E4E150F0402040E1F700C01A
:1012B00000008D819E819923B4F5612C712C6DC045
:1012C000140126183708B1018F8198850E94B00259
:1012D000B1018F8198850E942303A090C002B09035
:1012E000C102C090C202D090C302E090C402F0904C
:1012F000C5020091C6021091C7029101330C440B44
:10130000550BEF81F885BF01FF0F880B990B0E94E9
:10131000AD058FE19EE40197F1F700C000009FEF5B
:10132000691A790A02C0612C712CED81FE816E165A
:101330007F0634F23AC01301280C391CB1018F81A9
:1013400098850E94B002B1018F8198850E94230385
:10135000A090C002B090C102C090C202D090C3025F
:10136000E090C402F090C5020091C6021091C7023D
:101370009101330C440B550BEF81F885BF01FF0F32
:10138000880B990B0E94AD058FE19EE40197F1F760
:1013900000C000009FEF691A790A8D819E819195A6
:1013A000819591096816790634F2EB81FC81FF235F
:1013B000A4F5812C912C69C06F8078846818790815
:1013C000B201C3010E94B002B201C3010E94230313
:1013D000A090C002B090C102C090C202D090C302DF
:1013E000E090C402F090C5020091C6021091C702BD
:1013F000B301770C880B990B9201052C000C440B60
:10140000550B0E94AD058FE19EE40197F1F700C0F6
:1014100000009FEF891A990A02C0812C912CEB8160
:10142000FC818E169F0644F238C06F807884680C69
:10143000791CB201C3010E94B002B201C3010E9433
:101440002303A090C002B090C102C090C202D0900D
:10145000C302E090C402F090C5020091C602109150
:10146000C702B301770C880B990B9201052C000C75
:10147000440B550B0E94AD058FE19EE40197F1F7F7
:1014800000C000009FEF891A990A8B819C81919579
:10149000819591098816990644F2EFEFFDE329E45E
:1014A000E150F0402040E1F700C0000000CDEEE741
:1014B000F0E000851185E284F38464847584C68439
:1014C000D7841A8219824BC0F301E01BF10B2981EA
:1014D0003A812E9FC0012F9F900D3E9F900D1124A9
:1014E00064E670E00E94F20F9B012801460E571E31
:1014F000C6018E199F09BF010E94F20FCB01289FE0
:10150000B001299F700D389F700D11246E0D7F1D45
:10151000072E000C880B990B0E947F0C4B015C017D
:10152000B201550C880B990B0E947F0CA501940108
:101530000E94A7036091BE027091BF028091DC02FD
:101540009091DD020E94B0028FE59AEE0197F1F7CB
:1015500000C00000E981FA813196FA83E98329818C
:101560003A81243631050CF4AFCF3FEF89E698E19C
:10157000315080409040E1F700C00000E4E6F0E028
:10158000FA83E9834BC0F301E01BF10B29813A8117
:101590002E9FC0012F9F900D3E9F900D112464E659
:1015A00070E00E94F20F9B012801460E571EC601F3
:1015B0008E199F09BF010E94F20FCB01289FB00135
:1015C000299F700D389F700D11246E0D7F1D072E01
:1015D000000C880B990B0E947F0C4B015C01B2013F
:1015E000550C880B990B0E947F0CA50194010E9459
:1015F000A7036091BE027091BF028091DC029091BE
:10160000DD020E94B0028FE59AEE0197F1F700C06B
:101610000000E981FA813197FA83E98329813A81CF
:10162000121613060CF4AFCF3FEF8DE399E431505F
:1016300080409040E1F700C0000039CC9F939F7735
:101640000E94BA0C0F90002042F49058A2EA2AEDB2
:101650003FE049E450E40E94470B0C94670D50585A
:10166000BB27AA270E94470B0C94670D0E942E0DE2
:1016700038F00E94350D20F039F49F3F19F426F41C
:101680000C94040D0EF4E095E7FB0C94FE0CE92F8E
:101690000E948C0D58F3BA176207730784079507E9
:1016A00020F079F4A6F50C94AE0D0EF4E0950B2E17
:1016B000BA2FA02D0B01B90190010C01CA01A001A4
:1016C0001124FF27591B99F0593F50F4503E68F1FF
:1016D0001A16F040A22F232F342F4427585FF3CF40
:1016E000469537952795A795F0405395C9F77EF411
:1016F0001F16BA0B620B730B840BBAF09150A1F05A
:10170000FF0FBB1F661F771F881FC2F70EC0BA0FDF
:10171000621F731F841F48F4879577956795B79567
:10172000F7959E3F08F0B0CF9395880F08F0992762
:10173000EE0F979587950895DF93DD27B92FBF7733
:1017400040E85FE31616170648075B0718F4D92F21
:101750000E94BA0D9F938F937F936F930E94CD0E3B
:10176000E4E5F0E00E94070D0E94670D2F913F9184
:101770004F915F910E94D50DDD2351F09058A2EA60
:101780002AED3FE049EC5FE3D0785D270E94470BEC
:10179000DF910C94670D0E94DA0C08F481E0089543
:1017A0000E943E0DE3950C94780D0E94E90B0C9479
:1017B000670D0E94350D58F00E942E0D40F029F45F
:1017C0005F3F29F00C94FE0C51110C94AF0D0C945A
:1017D000040D0E948C0D68F39923B1F3552391F306
:1017E000951B550BBB27AA2762177307840738F090
:1017F0009F5F5F4F220F331F441FAA1FA9F335D0ED
:101800000E2E3AF0E0E832D091505040E695001CA0
:10181000CAF72BD0FE2F29D0660F771F881FBB1F5A
:10182000261737074807AB07B0E809F0BB0B802D38
:10183000BF01FF2793585F4F3AF09E3F510578F064
:101840000C94FE0C0C94AF0D5F3FE4F3983ED4F380
:10185000869577956795B795F7959F5FC9F7880F38
:10186000911D9695879597F90895E1E0660F771F8A
:10187000881FBB1F621773078407BA0720F0621B1B
:10188000730B840BBA0BEE1F88F7E09508950E9446
:101890004E0C6894B1110C94AF0D08950E94940DF4
:1018A00088F09F5798F0B92F9927B751B0F0E1F021
:1018B000660F771F881F991F1AF0BA95C9F714C0D1
:1018C000B13091F00E94AE0DB1E008950C94AE0DD0
:1018D000672F782F8827B85F39F0B93FCCF386950A
:1018E00077956795B395D9F73EF490958095709567
:1018F00061957F4F8F4F9F4F0895E89409C097FBE4
:101900003EF490958095709561957F4F8F4F9F4FD6
:101910009923A9F0F92F96E9BB279395F69587951A
:1019200077956795B795F111F8CFFAF4BB0F11F4DD
:1019300060FF1BC06F5F7F4F8F4F9F4F16C0882384
:1019400011F096E911C0772321F09EE8872F762FBA
:1019500005C0662371F096E8862F70E060E02AF0FB
:101960009A95660F771F881FDAF7880F96958795E7
:1019700097F90895DF93CF931F930F938B01EC0199
:10198000E1E8F0E00E94070D0E94670D9801AE01AA
:101990008B01EC0160E070E080E89FE30E942F0B78
:1019A0000E948D0E9801AE010F911F91CF91DF9192
:1019B0000C94D50D990F0008550FAA0BE0E8FEEF27
:1019C00016161706E807F907C0F012161306E40703
:1019D000F50798F0621B730B840B950B39F40A26FC
:1019E00061F0232B242B252B21F408950A2609F4DA
:1019F000A140A6958FEF811D811D089597F99F67DE
:101A000080E870E060E008959FEF80EC0895DF9338
:101A1000CF931F930F93FF92EF92DF927B018C0184
:101A2000689406C0DA2EEF010E94D50DFE01E894FD
:101A3000A5912591359145915591A6F3EF010E940D
:101A4000470BFE019701A801DA9469F7DF90EF9048
:101A5000FF900F911F91CF91DF91089500240A9478
:101A60001616170618060906089500240A94121679
:101A700013061406050608950C94040D0E94940D97
:101A8000D8F3E894E0E0BB279F57F0F02AED3FE061
:101A900049EC06C0EE0FBB0F661F771F881F28F0AA
:101AA000B23A62077307840728F0B25A620B730BCD
:101AB000840BE3959A9572F7803830F49A95BB0FB2
:101AC000661F771F881FD2F790480C940D0F092EC0
:101AD0000394000C11F4882352F0BB0F40F4BF2B89
:101AE00011F460FF04C06F5F7F4F8F4F9F4F0895C9
:101AF000EF93E0FF07C0A2EA2AED3FE049EC5FEB7D
:101B00000E94470B0E94670D0F90039401FC9058B0
:101B1000E9EAF0E00C94200F57FD9058440F551F50
:101B200059F05F3F71F04795880F97FB991F61F05F
:101B30009F3F79F087950895121613061406551FD6
:101B4000F2CF4695F1DF08C0161617061806991F42
:101B5000F1CF86957105610508940895E894BB2737
:101B600066277727CB0197F908950E94DA0C08F4CD
:101B70008FEF08959B01AC0160E070E080E89FE387
:101B80000C94D50B0E94D50D0C94670D0E942E0D60
:101B900038F00E94350D20F0952311F00C94FE0CC6
:101BA0000C94040D11240C94AF0D0E948C0D70F355
:101BB000959FC1F3950F50E0551F629FF001729FF2
:101BC000BB27F00DB11D639FAA27F00DB11DAA1F01
:101BD000649F6627B00DA11D661F829F2227B00D4E
:101BE000A11D621F739FB00DA11D621F839FA00DD9
:101BF000611D221F749F3327A00D611D231F849F29
:101C0000600D211D822F762F6A2F11249F5750407F
:101C10009AF0F1F088234AF0EE0FFF1FBB1F661FFA
:101C2000771F881F91505040A9F79E3F510580F0C3
:101C30000C94FE0C0C94AF0D5F3FE4F3983ED4F38C
:101C4000869577956795B795F795E7959F5FC1F767
:101C5000FE2B880F911D9695879597F90895FA01A7
:101C6000EE0FFF1F309621053105A1F161157105B9
:101C700061F48038BFE39B0749F16894903881058F
:101C800061F08038BFEF9B0741F099234AF5FF3F91
:101C9000E1053105210519F1E8940894E795D9018A
:101CA000AA2329F4AB2FBE2FF85FD0F310C0FF5F3B
:101CB00070F4A695E0F7F73950F019F0FF3A38F4D0
:101CC0009F779F930DD00F9007FC9058089546F092
:101CD0000C94040D60E070E080E89FE308954FE706
:101CE0009F775F934F933F932F930E94760F2F918F
:101CF0003F914F915F910E94C20D0C94D90E9F931A
:101D00000E943E0D0F9007FCEE5F0C94780D19F4C5
:101D100016F40C94040D0C940B0F0E94940DB8F360
:101D20009923C9F3B6F39F57550B87FF0E94190FEC
:101D30000024A0E640EA900180585695979528F433
:101D4000805C660F771F881F20F02617370748072B
:101D500030F4621B730B840B202931294A2BA69582
:101D600017940794202531254A2758F7660F771FC7
:101D7000881F20F026173707480730F4620B730BD3
:101D8000840B200D311D411DA09581F7B901842FD1
:101D90009158880F9695879508959B01AC010C94F6
:101DA000C20D29F416F00C94FE0C0C94AE0D0C949C
:101DB000040D0E94940DA8F39638A0F707F80F922F
:101DC000E8942BE33AEA48EB5FE70E94D80D0F92C4
:101DD0000F920F924DB75EB70F920E94BE0FE7ECC5
:101DE000F0E00E94070D4F915F91EF91FF91E59513
:101DF000EE1FFF1F49F0FE57E0684427EE0F441F17
:101E0000FA95E1F74195550B0E94380F0F9007FEA8
:101E10000C94BA0D08959F3F31F0915020F48795AE
:101E200077956795B795880F911D9695879597F942
:101E3000089591505040660F771F881FD2F708957C
:101E40009F938F937F936F93FF93EF939B01AC01CD
:101E50000E94C20DEF91FF910E94070D2F913F91BB
:101E60004F915F910C94C20D0C94FE0C0C940B0FCF
:101E70000E94940DD8F39923C9F3940F511DA3F335
:101E80009150504094F059F0882332F0660F771F3C
:101E9000881F91505040C1F79E3F51052CF7880F85
:101EA000911D9695879597F908955F3FACF0983E00
:101EB0009CF0BB27869577956795B79508F4B16038
:101EC0009395C1F7BB0F58F711F460FFE8CF6F5F30
:101ED0007F4F8F4F9F4FE3CF0C94AF0D16F00C94B4
:101EE0000B0F0C94040D68940C94FE0C0E94940D3E
:101EF000A8F39923C1F3AEF3DF93CF931F930F930E
:101F0000FF92C92FDD2788232AF02197660F771FBC
:101F1000881FDAF720E030E040E85FEB9FE3883984
:101F200020F0803E38F021968F770E94300BEFEE44
:101F3000F0E004C00E94300BECE1F1E00E94070DDC
:101F40008B01BE01EC01FB2E6F5771097595771F50
:101F5000880B990B0E947F0C28E132E741E35FE395
:101F60000E94D50DAF2D9801AE01FF900F911F91EA
:101F7000CF91DF910E94470B0C94670DFA01DC01B1
:101F8000AA0FBB1F9B01AC01BF5728F422273327A0
:101F90004427507820C0B75190F4AB2F00244695C9
:101FA00037952795011CA395D2F3002071F0220FDD
:101FB000331F441FB395DAF30ED00C942F0B61300E
:101FC0007105A0E88A07B94630F49B01AC01662789
:101FD000772788279078309621F0208331834283B9
:101FE0005383089597FB072E16F4009407D077FDCE
:101FF00009D00E94251007FC05D03EF490958195EC
:102000009F4F0895709561957F4F0895052E97FB1A
:102010001EF400940E941D1057FD07D00E94391035
:1020200007FC03D04EF40C941D105095409530954C
:1020300021953F4F4F4F5F4F089590958095709534
:1020400061957F4F8F4F9F4F0895AA1BBB1B51E196
:1020500007C0AA1FBB1FA617B70710F0A61BB70B18
:10206000881F991F5A95A9F780959095BC01CD01BD
:102070000895A1E21A2EAA1BBB1BFD010DC0AA1FC9
:10208000BB1FEE1FFF1FA217B307E407F50720F0E1
:10209000A21BB30BE40BF50B661F771F881F991F5C
:1020A0001A9469F760957095809590959B01AC01A5
:0A20B000BD01CF010895F894FFCFA1
:1020BA00C0F9A4B0999282F88090499CAA55CCA301
:1020CA0066AF60BCCC6C53FF00553C0FF08F3200FA
:1020DA007800AE08050D5C11B3150A1A611EB82204
:1020EA00E61D0100BB41B6530643BE0FE443352843
:1020FA00734D9034E73861534957F75F4E64A568CA
:10210A006860AA4FC872850A556C00C0C101C30332
:10211A0002C2C60607C705C5C404CC0C0DCD0FCF35
:10212A00CE0E0ACACB0BC90908C8D81819D91BDBA5
:10213A00DA1A1EDEDF1FDD1D1CDC14D4D515D717F5
:10214A0016D6D21213D311D1D010F03031F133F3A5
:10215A00F23236F6F737F53534F43CFCFD3DFF3FF5
:10216A003EFEFA3A3BFB39F9F83828E8E929EB2B25
:10217A002AEAEE2E2FEF2DEDEC2CE42425E527E7B5
:10218A00E62622E2E323E12120E0A06061A163A325
:10219A00A26266A6A767A56564A46CACAD6DAF6FB5
:1021AA006EAEAA6A6BAB69A9A86878B8B979BB7B25
:1021BA007ABABE7E7FBF7DBDBC7CB47475B577B775
:1021CA00B67672B2B373B17170B0509091519353A5
:1021DA00529296565797559594549C5C5D9D5F9F75
:1021EA009E5E5A9A9B5B99595898884849894B8BA5
:1021FA008A4A4E8E8F4F8D4D4C8C44848545874735
:10220A004686824243834181804000C1814001C0A9
:10221A00804101C0804100C1814001C0804100C1AC
:10222A00814000C1814001C0804101C0804100C19C
:10223A00814000C1814001C0804100C1814001C08C
:10224A00804101C0804100C1814001C0804100C17C
:10225A00814000C1814001C0804100C1814001C06C
:10226A00804101C0804100C1814000C1814001C05C
:10227A00804101C0804100C1814001C0804100C14C
:10228A00814000C1814001C0804101C0804100C13C
:10229A00814000C1814001C0804100C1814001C02C
:1022AA00804101C0804100C1814000C1814001C01C
:1022BA00804101C0804100C1814001C0804100C10C
:1022CA00814000C1814001C0804100C1814001C0FC
:1022DA00804101C0804100C1814001C0804100C1EC
:1022EA00814000C1814001C0804101C0804100C1DC
:1022FA00814000C1814001C0804100C1814001C0CC
:0A230A00804101C0804100C1814004
:00000001FF
